:100000000C9434000C943E000C943E000C943E0082
:100010000C943E000C943E000C943E000C943E0068
:100020000C943E000C943E000C943E000C943E0058
:100030000C943E000C943E000C943E000C943E0048
:100040000C943E000C943E000C943E000C943E0038
:100050000C943E000C943E000C943E000C943E0028
:100060000C943E000C943E0011241FBECFEFD8E04C
:10007000DEBFCDBF0E9440000C94C6000C9400006F
:10008000CF93DF93CDB7DEB729970FB6F894DEBFD5
:100090000FBECDBF8AB18C6F8AB984B1836084B939
:1000A00084B1837E84B985B18C6185B9FE013196B6
:1000B00088E0DF011D928A95E9F741E05CE10000EC
:1000C00083B18987298522952170242730E089858D
:1000D00083FF03C080E090E002C082E090E0280F40
:1000E000391F898582FF03C080E090E002C084E070
:1000F00090E0280F391FDF01CD018E1B9F0B821767
:10010000930714F44D93F8CF1BB855B98AE090E0EB
:10011000B5E0BA95F1F7000001970097C9F7ABB1C8
:10012000698184E0689FB00111248A81B8E08B9FC7
:10013000C0011124682B6A2B8B8170E1879FC0015D
:100140001124682B8C81A0E28A9FC0011124682BA6
:100150008D81B0E48B9FC0011124682B8E8170E8E3
:10016000879FC0011124682B6BB995B18F81982BA3
:100170008885880F892B85B9DF01CD018E1B9F0BE8
:10018000821793070CF09BCF1D92F7CFF894FFCF07
:00000001FF
