:100000000C943A000C944F000C944F000C944F0049
:100010000C944F000C944F000C944F000C944F0024
:100020000C944F000C944F000C944F000C944F0014
:100030000C944F000C944F000C944F000C944F0004
:100040000C944F000C944F000C944F000C944F00F4
:100050000C944F000C944F000C944F000C944F00E4
:100060000C944F000C944F006364696E6F7073754D
:1000700078585B0011241FBECFEFD8E0DEBFCDBFA4
:1000800012E0A0E0B1E0E4E5F8E102C005900D92D5
:10009000A031B107D9F70E9451000C94280C0C94A0
:1000A0000000CF93DF93CDB7DEB72C970FB6F8944F
:1000B000DEBF0FBECDBF9A8789877C876B8760E8DC
:1000C00075E280E090E00E94FA000E94BD00198273
:1000D0001A821B821C821D821E821F82188680E06B
:1000E0000E943E01CC01A0E0B0E089839A83AB83FB
:1000F000BC8389819A81AB81BC81BC01CD010E9406
:100100009602DC01CB01BC01CD010E948203DC011F
:10011000CB018D839E83AF83B8872DEC3CEC4CECF8
:100120005EE36D817E818F8198850E9442048823E1
:100130002CF480EE91E00E949B0118C088EF91E0C2
:100140000E949B018D819E81AF81B885BC01CD014C
:100150000E948203DC01CB01BC01CD010E940D0392
:10016000DC01CB01BC01CD010E9457020E94740149
:1001700084EF91E00E94C001B2CFCF93DF93CDB75F
:10018000DEB78AE790E0FC0110828AE790E02AE778
:1001900030E0F90120812068FC0120838CE790E0A9
:1001A0002CE730E0F90120812064FC0120838AE7FC
:1001B00090E02AE730E0F90120812760FC012083EC
:1001C0008EE790E0FC0110828EE790E02EE730E0B1
:1001D000F90120812F63FC0120838AE790E02AE760
:1001E00030E0F90120812064FC0120830000DF91D0
:1001F000CF910895CF93DF93CDB7DEB72A970FB68F
:10020000F894DEBF0FBECDBF6B837C838D839E834E
:1002100080E894E8AEE1B0E02B813C814D815E81C5
:10022000BC01CD010E94F305DA01C90101979A834F
:10023000898385EC90E029813A81232F3327FC01C3
:10024000208384EC90E02981FC01208380EC90E005
:1002500022E0FC01208381EC90E028E1FC01208376
:1002600082EC90E026E2FC0120832A960FB6F894F7
:10027000DEBF0FBECDBFDF91CF910895CF93DF9347
:100280001F92CDB7DEB789838CE790E02CE730E092
:10029000F9012081207FFC0120838CE790E02CE78E
:1002A00030E0F90130812981232BFC0120838AE78A
:1002B00090E02AE730E0F90120812064FC012083EE
:1002C00000008AE790E0FC018081882F90E0807434
:1002D00099270097B1F788E790E0FC018081918130
:1002E0000F90DF91CF910895CF93DF93CDB7DEB715
:1002F0008AE00E9481018DE00E948101DF91CF910F
:100300000895CF93DF931F92CDB7DEB789830000A6
:1003100080EC90E0FC018081882F90E0807299272A
:100320000097B1F386EC90E02981FC0120830F90C7
:10033000DF91CF910895CF93DF9300D000D0CDB758
:10034000DEB79C838B838B819C819A8389830BC0CE
:1003500089819A819C012F5F3F4F3A832983FC0159
:1003600080810E94810189819A81FC01808188239A
:1003700079F70F900F900F900F90DF91CF91089524
:10038000CF93DF93CDB7DEB762970FB6F894DEBF99
:100390000FBECDBF9A8B898B1A82198277C080E0FD
:1003A00090E0A0E8BFE38B839C83AD83BE8320E015
:1003B00030E04AE755E46B817C818D819E810E940B
:1003C0009005DC01CB018F839887A987BA8720E04D
:1003D00030E040E85FE36F81788589859A850E94E7
:1003E000420488232CF481E090E09C878B873FC0F7
:1003F00020E03FEF4FE757E46F81788589859A8544
:100400000E948C0518164CF520E030E040E251E4E3
:100410006B817C818D819E810E949005DC01CB01E6
:10042000BC01CD010E94AE04DC01CB019C878B870F
:100430000FC080E991E09E878D878D859E8501970D
:10044000F1F79E878D878B859C8501979C878B878D
:100450008B859C85009769F714C06F8178858985A5
:100460009A850E94AE04DC01CB019C878B878B852B
:100470009C85988B8F878F8598890197F1F7988B4A
:100480008F8789819A8101969A83898329813A810C
:1004900089899A892817390708F481CF62960FB69F
:1004A000F894DEBF0FBECDBFDF91CF910895CF93FB
:1004B000DF93CDB7DEB729970FB6F894DEBF0FBE36
:1004C000CDBF6E837F838887998745E050E060E0E9
:1004D00070E0CE0101960E9415068E819F81292F22
:1004E0002F938F9384E092E0892F8F9384E092E0A2
:1004F0008F93CE010196892F8F93CE0101968F9312
:100500000E941C060F900F900F900F900F900F906D
:100510001D82CE0101960E949B0129960FB6F89488
:10052000DEBF0FBECDBFDF91CF910895CF93DF9394
:1005300000D000D0CDB7DEB769837A838B839C83EC
:1005400029813A814B815C81DA01C901880F991FA9
:10055000AA1FBB1F880F991FAA1FBB1F820F931FC3
:10056000A41FB51FBC01CD010E94DA04DC01CB0140
:1005700020E030E040E854E4BC01CD010E94460494
:10058000DC01CB01BC01CD010F900F900F900F90BB
:10059000DF91CF910895CF93DF93CDB7DEB7289742
:1005A0000FB6F894DEBF0FBECDBF69837A838B830D
:1005B0009C832D833E834F8358872D813E814F81BD
:1005C000588569817A818B819C810E948C051816DF
:1005D0006CF42D813E814F81588569817A818B81B0
:1005E0009C810E94DD03DC01CB010CC029813A8192
:1005F0004B815C816D817E818F8198850E94DD03B6
:10060000DC01CB01BC01CD0128960FB6F894DEBF0A
:100610000FBECDBFDF91CF910895CF93DF93CDB7BC
:10062000DEB760970FB6F894DEBF0FBECDBF6D8703
:100630007E878F87988B80E090E0A6ECB2E48B8376
:100640009C83AD83BE8318861F821A8219823AC0AA
:1006500089819A81880F991F880F991F880F991F88
:100660008C5F9E4FFC0180819181A281B3812D8599
:100670003E854F855889BC01CD010E94CB02DC012B
:10068000CB0189879A87AB87BC8729853A854B85BB
:100690005C856B817C818D819E810E948C05181602
:1006A00064F489859A85AB85BC858B839C83AD83F7
:1006B000BE8389819A8198878F8389819A810196E7
:1006C0009A83898389819A818C3191050CF4C0CFFA
:1006D0008F819885880F991F880F991F880F991F00
:1006E00080509F4FFC0180819181A281B381BC0128
:1006F000CD0160960FB6F894DEBF0FBECDBFDF917F
:10070000CF910895CF93DF93CDB7DEB7AC970FB6F7
:10071000F894DEBF0FBECDBF69A77AA78BA79CA7B1
:1007200089A59AA5ABA5BCA52B2F2F932A2F2F9374
:10073000292F2F938F9387E092E0892F8F9387E063
:1007400092E08F93CE010196892F8F93CE0101966F
:100750008F930E941C068DB79EB708960FB6F8942B
:10076000DEBF0FBECDBFCE018996292F2F938F9369
:100770008CE092E0892F8F938CE092E08F93CE01F2
:100780000196892F8F93CE0101968F930E943E068A
:100790000F900F900F900F900F900F9089A59AA532
:1007A000ABA5BCA5BC01CD01AC960FB6F894DEBFDD
:1007B0000FBECDBFDF91CF9108955058BB27AA2718
:1007C0000ED070C161D130F066D120F031F49F3F7E
:1007D00011F41EF456C10EF4E095E7FB4CC1E92F6D
:1007E00072D180F3BA17620773078407950718F070
:1007F00071F49EF58AC10EF4E0950B2EBA2FA02D50
:100800000B01B90190010C01CA01A0011124FF27BD
:10081000591B99F0593F50F4503E68F11A16F040B8
:10082000A22F232F342F4427585FF3CF46953795B7
:100830002795A795F0405395C9F77EF41F16BA0B7C
:10084000620B730B840BBAF09150A1F0FF0FBB1F2A
:10085000661F771F881FC2F70EC0BA0F621F731F73
:10086000841F48F4879577956795B795F7959E3FD0
:1008700008F0B3CF9395880F08F09927EE0F97955E
:1008800087950895D4D008F481E008950CD00AC16A
:1008900002D140F0F9D030F021F45F3F19F0EBC005
:1008A000511134C1EEC00FD198F39923C9F35523E8
:1008B000B1F3951B550BBB27AA2762177307840753
:1008C00038F09F5F5F4F220F331F441FAA1FA9F309
:1008D00033D00E2E3AF0E0E830D091505040E695FB
:1008E000001CCAF729D0FE2F27D0660F771F881F5C
:1008F000BB1F261737074807AB07B0E809F0BB0B4B
:10090000802DBF01FF2793585F4F2AF09E3F51056E
:1009100068F0B1C0FBC05F3FECF3983EDCF3869516
:1009200077956795B795F7959F5FC9F7880F911DE4
:100930009695879597F90895E1E0660F771F881FD0
:10094000BB1F621773078407BA0720F0621B730B83
:10095000840BBA0BEE1F88F7E0950895BCD088F0A1
:100960009F5790F0B92F9927B751A0F0D1F0660F9B
:10097000771F881F991F1AF0BA95C9F712C0B130B6
:1009800081F0C3D0B1E00895C0C0672F782F8827C9
:10099000B85F39F0B93FCCF3869577956795B395F5
:1009A000D9F73EF490958095709561957F4F8F4F64
:1009B0009F4F0895E89409C097FB3EF49095809569
:1009C000709561957F4F8F4F9F4F9923A9F0F92F15
:1009D00096E9BB279395F695879577956795B79593
:1009E000F111F8CFFAF4BB0F11F460FF1BC06F5F79
:1009F0007F4F8F4F9F4F16C0882311F096E911C08B
:100A0000772321F09EE8872F762F05C0662371F0AB
:100A100096E8862F70E060E02AF09A95660F771FBF
:100A2000881FDAF7880F9695879597F90895990F9B
:100A30000008550FAA0BE0E8FEEF16161706E807A8
:100A4000F907C0F012161306E407F50798F0621BC9
:100A5000730B840B950B39F40A2661F0232B242B9E
:100A6000252B21F408950A2609F4A140A6958FEFBD
:100A7000811D811D089597F99F6780E870E060E00F
:100A800008959FEF80EC089500240A941616170627
:100A900018060906089500240A941216130614066F
:100AA00005060895092E0394000C11F4882352F0D2
:100AB000BB0F40F4BF2B11F460FF04C06F5F7F4F8A
:100AC0008F4F9F4F089557FD9058440F551F59F071
:100AD0005F3F71F04795880F97FB991F61F09F3F2B
:100AE00079F087950895121613061406551FF2CF54
:100AF0004695F1DF08C0161617061806991FF1CFA4
:100B000086957105610508940895E894BB276627CA
:100B10007727CB0197F908958ADF08F48FEF0895BE
:100B20000BD0C0CFB1DF28F0B6DF18F0952309F065
:100B3000A2CFA7CF1124EACFC6DFA0F3959FD1F3B0
:100B4000950F50E0551F629FF001729FBB27F00D7B
:100B5000B11D639FAA27F00DB11DAA1F649F6627D0
:100B6000B00DA11D661F829F2227B00DA11D621F1F
:100B7000739FB00DA11D621F839FA00D611D221FD9
:100B8000749F3327A00D611D231F849F600D211DBD
:100B9000822F762F6A2F11249F5750408AF0E1F060
:100BA00088234AF0EE0FFF1FBB1F661F771F881FA9
:100BB00091505040A9F79E3F510570F05CCFA6CFF1
:100BC0005F3FECF3983EDCF3869577956795B79594
:100BD000F795E7959F5FC1F7FE2B880F911D9695BE
:100BE000879597F90895A1E21A2EAA1BBB1BFD0158
:100BF0000DC0AA1FBB1FEE1FFF1FA217B307E407FC
:100C0000F50720F0A21BB30BE40BF50B661F771F53
:100C1000881F991F1A9469F7609570958095909533
:100C20009B01AC01BD01CF010895DC0101C06D93B2
:100C300041505040E0F70895AEE0B0E0E2E2F6E067
:100C40000C94FF0B0D891E8986E08C831A8309831F
:100C50008FEF9FE79E838D83AE01475E5F4F6F8965
:100C6000788DCE0101960E945706EF81F885E00F3E
:100C7000F11F10822E96E4E00C941B0CAEE0B0E065
:100C8000E4E4F6E00C94010C85E08C838B899C896C
:100C90009A838983AE01495E5F4F6D897E89CE015B
:100CA00001960E94A7092E96E2E00C941D0CACE080
:100CB000B0E0EDE5F6E00C94F10B7C016B018A01EC
:100CC000FC0117821682838181FFBDC1CE0101968E
:100CD0004C01F7019381F60193FD859193FF81917A
:100CE0006F01882309F4ABC1853239F493FD8591F6
:100CF00093FF81916F01853229F4B70190E00E9442
:100D0000450BE7CF512C312C20E02032A0F48B3260
:100D100069F030F4803259F0833269F420612CC0DC
:100D20008D3239F0803339F4216026C0226024608E
:100D300023C0286021C027FD27C030ED380F3A308E
:100D400078F426FF06C0FAE05F9E300D1124532E82
:100D500013C08AE0389E300D1124332E20620CC05F
:100D60008E3221F426FD6BC1206406C08C3611F44E
:100D7000206802C0883641F4F60193FD859193FF07
:100D800081916F018111C1CF982F9F7D9554933030
:100D900028F40C5F1F4FFFE3F9830DC0833631F059
:100DA000833771F0833509F05BC022C0F801808180
:100DB00089830E5F1F4F44244394512C540115C066
:100DC0003801F2E06F0E711CF801A080B18026FF9F
:100DD00003C0652D70E002C06FEF7FEFC5012C8767
:100DE0000E94FC0A2C0183012C852F77222E17C02C
:100DF0003801F2E06F0E711CF801A080B18026FF6F
:100E000003C0652D70E002C06FEF7FEFC5012C8736
:100E10000E94F10A2C012C852068222E830123FCDC
:100E20001BC0832D90E048165906B0F4B70180E24C
:100E300090E00E94450B3A94F4CFF50127FC859190
:100E400027FE81915F01B70190E00E94450B3110B0
:100E50003A94F1E04F1A51084114510471F7E5C07A
:100E6000843611F0893639F5F80127FF07C0608113
:100E70007181828193810C5F1F4F08C060817181F5
:100E8000882777FD8095982F0E5F1F4F2F76B22E03
:100E900097FF09C090958095709561957F4F8F4F12
:100EA0009F4F2068B22E2AE030E0A4010E94900BF0
:100EB000A82EA81844C0853729F42F7EB22E2AE028
:100EC00030E025C0F22FF97FBF2E8F36C1F018F425
:100ED000883579F0B4C0803719F0883721F0AFC079
:100EE0002F2F2061B22EB4FE0DC08B2D8460B82E42
:100EF00009C024FF0AC09F2F9660B92E06C028E0C3
:100F000030E005C020E130E002C020E132E0F8012D
:100F1000B7FE07C060817181828193810C5F1F4F92
:100F200006C06081718180E090E00E5F1F4FA401D8
:100F30000E94900BA82EA818FB2DFF77BF2EB6FE9F
:100F40000BC02B2D2E7FA51450F4B4FE0AC0B2FCAA
:100F500008C02B2D2E7E05C07A2C2B2D03C07A2C99
:100F600001C0752C24FF0DC0FE01EA0DF11D80812A
:100F7000803311F4297E09C022FF06C07394739454
:100F800004C0822F867809F0739423FD13C020FFDC
:100F900006C05A2C731418F4530C5718732C73147E
:100FA00068F4B70180E290E02C870E94450B7394AF
:100FB0002C85F5CF731410F4371801C0312C24FFA1
:100FC00012C0B70180E390E02C870E94450B2C856E
:100FD00022FF17C021FF03C088E590E002C088E728
:100FE00090E0B7010CC0822F867859F021FD02C035
:100FF00080E201C08BE227FD8DE2B70190E00E9404
:10100000450BA51438F4B70180E390E00E94450B2E
:101010005A94F7CFAA94F401EA0DF11D8081B7012B
:1010200090E00E94450BA110F5CF332009F451CE7A
:10103000B70180E290E00E94450B3A94F6CFF701A9
:101040008681978102C08FEF9FEF2C96E2E10C948E
:101050000D0C20FD09C0FC0123FD05C022FF02C0CC
:101060007383628351834083089544FD10C046FD1D
:1010700010C0DB01FC01AA0FBB1FEE1FFF1F109465
:10108000D1F76A0F7B1F8E1F9F1F31E003C033E033
:1010900001C034E0660F771F881F991F3150D1F7C8
:1010A000620F711D811D911D08950F931F93CF93A2
:1010B000DF938C01C8010E94070BEC0197FD08C06B
:1010C0000E94DE0A892BB1F7B801CE010E94770B8E
:1010D000CE01DF91CF911F910F9108958F929F9232
:1010E000AF92CF92DF92EF92FF920F931F93CF9325
:1010F000DF93EC01A62E4A01022F0E94070BAC01E0
:1011000055274B32510521F04D32510551F40068FD
:10111000AA9411F480E067C0CE010E94070B97FDEE
:10112000F9CF102F1D7F302F307301F58033F1F48C
:10113000FF24FA94FA0C09F442C0CE010E94070B76
:1011400097FD3DC0382F3F7D383551F41264AA9485
:10115000AA94A9F1CE010E94070B97FF07C02FC0E8
:1011600006FF02C0126001C01261AF2CC12CD12C4D
:10117000760120ED280F283080F014FF04C0BE0156
:101180000E94770B19C02A3040F016FFF8CF2F7D50
:101190003FEE320F363098F72750412FC701B60186
:1011A0000E9435086B017C011260AA9459F0CE01AF
:1011B0000E94070B97FFDDCF11FD04C0ABCFC12C00
:1011C000D12C760117FF08C0F094E094D094C0941D
:1011D000C11CD11CE11CF11C212FB701A601C401C7
:1011E0000E94290881E0DF91CF911F910F91FF901C
:1011F000EF90DF90CF90AF909F908F900895A1E2F5
:10120000B0E0E5E0F9E00C94F60B5C017A018E01A8
:101210000F5F1F4F680180E2D8011D928A95E9F7A0
:10122000F501738040E050E0812CB0E0912C81E02A
:1012300090E0F90173FCA59173FEA1918F017A2FC3
:101240009F01A11103C080E090E07DC0AE3519F48C
:101250004115510559F1E92DF0E0E417F5073CF48B
:10126000AD3569F1AD3219F4BB2319F103C0B111E9
:1012700001C08A2EE72FE695E695E69586010E0FCA
:10128000111DF801A72FA7708C0102C0000F111FBC
:10129000AA95E2F7D801B081BA2BB083781559F03E
:1012A000781510F47F5FE6CF7150E4CF99249394C2
:1012B00003C0B1E001C0B0E04F5F5F4FBACFBB23C6
:1012C00019F08E8180628E83911003C099249394CB
:1012D00015C0F601CE018196208120952193E81753
:1012E000F907D1F7F3CFE114F10429F0D7018C937A
:1012F000F70131967F01615001F1912CC50169A37D
:101300000E94070B69A197FD16C0282F26952695E8
:101310002695F601E20FF11D208130E0AC01477007
:10132000552702C0359527954A95E2F720FDDBCF7A
:10133000B5010E94770B911086CFE114F10411F0F2
:10134000D7011C92C801A196EDE00C94120C4F92AB
:101350005F927F928F929F92AF92BF92CF92DF92D5
:10136000EF92FF920F931F93CF93DF931F92CDB70E
:10137000DEB78C012B017A01FC0117821682A12CA9
:10138000F801D380F201D3FC8591D3FE8191382FEF
:101390002F01882309F4FCC090E039830E94DE0A03
:1013A0003981892B21F0C8010E945508E9CF3532D7
:1013B00041F4F201D3FC3591D3FE31912F01353246
:1013C00069F4C80139830E94070B398197FDDEC09B
:1013D0003817B1F2B8010E94770BDAC03A3241F403
:1013E000D3FC3591D3FE31912F01BB24B39401C0BE
:1013F000B12C712C20ED230F2A3090F4FB2DF260DC
:10140000BF2E672D70E080E090E040E20E9435083A
:10141000762EF201D3FC3591D3FE31912F01EACF24
:10142000B1FE03C0711003C0B3C077247A9438367C
:1014300019F03C3661F014C0F201D3FC3591D3FEB3
:1014400031912F01383661F4FB2DF860BF2E8B2DC2
:101450008460B82EF201D3FC3591D3FE31912F0177
:10146000332309F495C0632F70E088E690E0398358
:101470000E94E60A3981892B09F48AC0B0FC07C0B2
:10148000F701C080D180C70102967C0102C0C12C47
:10149000D12C3E3651F4F8014681578160E070E06E
:1014A0002B2DC6010E9429086BCF3336A1F4B1FC65
:1014B00002C077247394C8010E94070B97FD66C091
:1014C000C114D10429F0F6018083C60101966C0194
:1014D0007A9489F757C03B3559F49201A601672DDC
:1014E000C8010E94FF082C01009709F04BC045C0BD
:1014F000C80139830E945508398197FD47C03F369E
:1015000069F128F4343631F1393679F12BC03337AB
:1015100069F03537F9F026C0C114D10429F0F6017D
:101520008082C60101966C017A9471F0C8010E9414
:10153000070B4C0197FD08C00E94DE0A892B61F35E
:10154000B801C4010E94770BC114D104D9F0F6018F
:10155000108218C0FB2DF062BF2E07C08B2D80615A
:10156000B82E03C09B2D9064B92E2B2DA601672D9C
:10157000C8010E946E08811105C0F8018381807343
:1015800029F406C0B0FCFCCEA394FACEAA2019F030
:101590008A2D90E002C08FEF9FEF0F90DF91CF91E7
:1015A0001F910F91FF90EF90DF90CF90BF90AF9081
:1015B0009F908F907F905F904F90089591110EC1F2
:1015C000803219F089508550D0F70895FC010590BC
:1015D000061621F00020D9F7C00108953197CF01F8
:1015E0000895FC010590615070400110D8F7809576
:1015F00090958E0F9F1F0895FC01615070400190DF
:101600000110D8F7809590958E0F9F1F0895CF9366
:10161000DF93EC012B8120FF33C026FF0AC02F7B14
:101620002B838E819F8101969F838E838A8190E098
:1016300029C022FF0FC0E881F9818081992787FDA9
:101640009095009719F420622B831AC03196F98384
:10165000E8830EC0EA85FB85099597FF09C02B81B9
:10166000019611F480E101C080E2822B8B8308C0D7
:101670002E813F812F5F3F4F3F832E83992702C0EA
:101680008FEF9FEFDF91CF9108950F931F93CF932B
:10169000DF93182F092FEB018B8181FD03C08FEFA2
:1016A0009FEF20C082FF10C04E815F812C813D8161
:1016B000421753077CF4E881F9819F012F5F3F4F68
:1016C00039832883108306C0E885F985812F099521
:1016D000892B29F72E813F812F5F3F4F3F832E8338
:1016E000812F902FDF91CF911F910F910895FB01D2
:1016F000238120FF12C026FD10C08F3F3FEF9307CC
:1017000061F082832F7D20642383268137812150DD
:10171000310937832683992708958FEF9FEF089526
:10172000FA01AA27283051F1203181F1E8946F9312
:101730006E7F6E5F7F4F8F4F9F4FAF4FB1E03ED0B8
:10174000B4E03CD0670F781F891F9A1FA11D680F56
:10175000791F8A1F911DA11D6A0F711D811D911D89
:10176000A11D20D009F468943F912AE0269F1124FE
:101770003019305D3193DEF6CF010895462F477062
:10178000405D4193B3E00FD0C9F7F6CF462F4F70BD
:10179000405D4A3318F0495D31FD4052419302D01B
:1017A000A9F7EACFB4E0A6959795879577956795C1
:1017B000BA95C9F700976105710508959B01AC01C1
:1017C0000A2E06945795479537952795BA95C9F7E8
:1017D000620F731F841F951FA01D089599278827E6
:1017E00008952F923F924F925F926F927F928F92C5
:1017F0009F92AF92BF92CF92DF92EF92FF920F93A0
:101800001F93CF93DF93CDB7DEB7CA1BDB0B0FB6A9
:10181000F894DEBF0FBECDBF09942A883988488866
:101820005F846E847D848C849B84AA84B984C884FC
:10183000DF80EE80FD800C811B81AA81B981CE0FF3
:10184000D11D0FB6F894DEBF0FBECDBFED010895D8
:04185000F894FFCF3A
:101854001E00000085EBD13E1D000000F628DC3E92
:101864001C0000008FC2F53E1B0000000000003F7A
:101874001A000000295C0F3F19000000CDCC0C3F7A
:1018840018000000E17A143F170000003D0A173FDA
:10189400160000009A99193F1500000052B81E3F27
:1018A40014000000AE47213F130000003333333FE0
:1018B4001200000048E13A3F11000000B81E453F05
:1018C40010000000CDCC4C3F0F0000000AD7633F4E
:1018D4000E0000001F856B3F0D0000000000803FDC
:1018E4000C000000713D8A3F0B0000003D0A973F49
:1018F4000A0000000AD7A33F090000003333B33FB6
:1019040008000000713DCA3F07000000B81EE53F13
:101914000600000000000040050000009A991940EC
:10192400040000007B142E4003000000000040402F
:10193400756E7265636F676E697A61626C65206447
:10194400697374616E63650064697374616E636561
:10195400203D2000257500252E32660025660000F6
:00000001FF
