:100000000C9434000C943E000C943E000C943E0082
:100010000C943E000C943E000C943E000C943E0068
:100020000C943E000C943E000C943E000C943E0058
:100030000C943E000C943E000C943E000C943E0048
:100040000C943E000C943E000C943E000C943E0038
:100050000C943E000C943E000C943E000C943E0028
:100060000C943E000C943E0011241FBECFEFD8E04C
:10007000DEBFCDBF0E9440000C945E000C940000D7
:100080008AB18C6F8AB984B1836084B920E02F5F14
:10009000822F880F880F8BB9822F8295869586953F
:1000A000837085B982E390E0EFE9FFE03197F1F7E3
:1000B00000C0000001970097B9F7E9CFF894FFCF8F
:00000001FF
