:100000000C9434000C943E000C943E000C943E0082
:100010000C943E000C943E000C943E000C943E0068
:100020000C943E000C943E000C943E000C943E0058
:100030000C943E000C943E000C943E000C943E0048
:100040000C943E000C943E000C943E000C943E0038
:100050000C943E000C943E000C943E000C943E0028
:100060000C943E000C943E0011241FBECFEFD8E04C
:10007000DEBFCDBF0E9440000C94C2000C94000073
:10008000CF93DF93CDB7DEB729970FB6F894DEBFD5
:100090000FBECDBF8AB18C6F8AB984B1836084B939
:1000A00084B1837F84B985B18C6085B980E090E0AC
:1000B00060E07CE0000023B12987298523FD03C08F
:1000C00082E090E0F7CF298522FD03C081E090E037
:1000D000F1CF8130910511F46F5F03C0029709F4ED
:1000E000615087E090E0462F50E0E1E0F0E0EC0F57
:1000F000FD1FE80FF91F9A01082E02C035952795BC
:100100000A94E2F7217033272083019770F71BB818
:1001100075B98AE090E035E03A95F1F70000019773
:100120000097C9F74BB1298154E0259F9001112414
:100130008A8158E0859FC0011124282B242B8B81B4
:1001400030E1839FC0011124282B8C8150E2859FD0
:10015000C0011124282B8D8130E4839FC00111241C
:10016000282B8E8150E8859FC0011124282B2BB9A4
:1001700095B18F81982B8885880F892B85B980E070
:0801800090E098CFF894FFCF46
:00000001FF
