:100000000C9434000C9449000C9449000C94490061
:100010000C9449000C9449000C9449000C9449003C
:100020000C9449000C9449000C9449000C9449002C
:100030000C9449000C9449000C9449000C9449001C
:100040000C9449000C9449000C9449000C9449000C
:100050000C9449000C9449000C9449000C944900FC
:100060000C9449000C94490011241FBECFEFD8E036
:10007000DEBFCDBF11E0A0E0B1E0E8EBFFE002C0E1
:1000800005900D92A430B107D9F70E944B000C9453
:10009000DA070C940000CF93DF93CDB7DEB7AA97B1
:1000A0000FB6F894DEBF0FBECDBF98A78FA37AA777
:1000B00069A760E875E280E090E00E9423010E9459
:1000C000E60020E2CE010796FC01322F11923A950C
:1000D000E9F719821A821B821C8219821A821B82FA
:1000E0001C821E821D824CC08D810E946701CC0142
:1000F000A0E0B0E02D813E81220F331F220F331F7D
:10010000AE014F5F5F4F240F351F2A5F3F4FF9014C
:1001100080839183A283B3838D819E81880F991FF1
:10012000880F991F9E012F5F3F4F820F931F0696E6
:10013000FC01208131814281538189819A81AB8187
:10014000BC8182179307A407B507A8F48D819E810F
:10015000880F991F880F991F9E012F5F3F4F820FB5
:10016000931F0696FC0180819181A281B3818983CE
:100170009A83AB83BC838D819E8101969E838D8300
:100180008D819E81883091050CF4AECFAE01495F20
:100190005F4F89819A81AB81BC8128E030E0BC014E
:1001A000CD010E944D03CE01079668E070E00E94E9
:1001B000BF02DC01CB01BC01CD010E94C4010E9441
:1001C0009D0184EF91E00E94280287CFCF93DF93B7
:1001D000CDB7DEB78AE790E0FC0110828AE790E0B5
:1001E0002AE730E0F90120812068FC0120838CE7B8
:1001F00090E02CE730E0F90120812064FC012083AD
:100200008AE790E02AE730E0F90120812760FC01CD
:1002100020838EE790E0FC0110828EE790E02EE7CD
:1002200030E0F90120812F63FC0120838AE790E010
:100230002AE730E0F90120812064FC0120830000DE
:10024000DF91CF910895CF93DF93CDB7DEB72A9793
:100250000FB6F894DEBF0FBECDBF6B837C838D835A
:100260009E8380E894E8AEE1B0E02B813C814D8133
:100270005E81BC01CD010E94C604DA01C90101976B
:100280009A83898385EC90E029813A81232F332753
:10029000FC01208384EC90E02981FC01208380EC28
:1002A00090E022E0FC01208381EC90E028E1FC0159
:1002B000208382EC90E026E2FC0120832A960FB690
:1002C000F894DEBF0FBECDBFDF91CF910895CF93DD
:1002D000DF931F92CDB7DEB789838CE790E02CE7E0
:1002E00030E0F9012081207FFC0120838CE790E041
:1002F0002CE730E0F90130812981232BFC01208398
:100300008AE790E02AE730E0F90120812064FC01CF
:10031000208300008AE790E0FC018081882F90E034
:10032000807499270097B1F788E790E0FC018081FD
:1003300091810F90DF91CF910895CF93DF93CDB747
:10034000DEB78AE00E94AA018DE00E94AA01DF9137
:10035000CF910895CF93DF931F92CDB7DEB78983F6
:10036000000080EC90E0FC018081882F90E080729A
:1003700099270097B1F386EC90E02981FC01208356
:100380000F90DF91CF910895CF93DF93CDB7DEB774
:1003900029970FB6F894DEBF0FBECDBF6E837F8363
:1003A0008887998745E050E060E070E0CE010196D3
:1003B0000E9402058E819F81292F2F938F9380E0C9
:1003C00091E0892F8F9380E091E08F93CE01019689
:1003D000892F8F93CE0101968F930E9409050F906C
:1003E0000F900F900F900F900F901D82CE010196ED
:1003F0000E94030229960FB6F894DEBF0FBECDBF50
:10040000DF91CF910895CF93DF9300D000D0CDB787
:10041000DEB79C838B838B819C819A8389830BC0FD
:1004200089819A819C012F5F3F4F3A832983FC0188
:1004300080810E94AA0189819A81FC0180818823A0
:1004400079F70F900F900F900F90DF91CF91089553
:10045000CF93DF93CDB7DEB762970FB6F894DEBFC8
:100460000FBECDBF9A8B898B1A82198277C080E02C
:1004700090E0A0E8BFE38B839C83AD83BE8320E044
:1004800030E04AE755E46B817C818D819E810E943A
:100490002B04DC01CB018F839887A987BA8720E0E2
:1004A00030E040E85FE36F81788589859A850E9416
:1004B000AA0388232CF481E090E09C878B873FC0BF
:1004C00020E03FEF4FE757E46F81788589859A8573
:1004D0000E94270418164CF520E030E040E251E479
:1004E0006B817C818D819E810E942B04DC01CB017C
:1004F000BC01CD010E94AE03DC01CB019C878B8740
:100500000FC080E991E09E878D878D859E8501973C
:10051000F1F79E878D878B859C8501979C878B87BC
:100520008B859C85009769F714C06F8178858985D4
:100530009A850E94AE03DC01CB019C878B878B855B
:100540009C85988B8F878F8598890197F1F7988B79
:100550008F8789819A8101969A83898329813A813B
:1005600089899A892817390708F481CF62960FB6CE
:10057000F894DEBF0FBECDBFDF91CF910895CF932A
:10058000DF93CDB7DEB762970FB6F894DEBF0FBE2C
:10059000CDBF9C878B877E876D871B821C821D82C7
:1005A0001E821F82188619861A861A82198254C0E2
:1005B00089819A81880F991F880F991F2B853C8507
:1005C000820F931FFC0180819181A281B3812B81D5
:1005D0003C814D815E81820F931FA41FB51F8B83C9
:1005E0009C83AD83BE8389819A81AC014F5F5F4F4D
:1005F0002AE134E0429FC001439F900D529F900D2D
:1006000011249C01442737FD4095542F89819A81FC
:10061000880F991F880F991F6B857C85860F971F00
:10062000FC0180819181A281B381BC01CD010E9436
:10063000B604DC01CB012F81388549855A85820FAC
:10064000931FA41FB51F8F839887A987BA878981B5
:100650009A8101969A83898329813A818D859E8525
:10066000281739070CF4A4CF8F819885A985BA85FE
:100670002B813C814D815E81BC01CD010E94C6046D
:10068000DA01C901BC01CD0162960FB6F894DEBF54
:100690000FBECDBFDF91CF910895EF92FF920F93E0
:1006A0001F93CF93DF93CDB7DEB72A970FB6F89499
:1006B000DEBF0FBECDBF6B837C838D839E83588747
:1006C0004F833A8729871A82198230C089819A819B
:1006D000880F991F880F991F2F813885B901680FDE
:1006E000791F89819A81880F991F880F991F2F81FF
:1006F0003885820F931FFC0180819181A281B38193
:100700002B813C814D815E8179018A01E81AF90AC9
:100710000A0B1B0BD801C701FB0180839183A283C5
:10072000B38389819A8101969A83898329813A8149
:1007300089859A85281739074CF22A960FB6F894BE
:10074000DEBF0FBECDBFDF91CF911F910F91FF9004
:10075000EF9008952FD008F481E0089557D088F0E5
:100760009F5790F0B92F9927B751A0F0D1F0660F9D
:10077000771F881F991F1AF0BA95C9F712C0B130B8
:1007800081F05ED0B1E008955BC0672F782F882795
:10079000B85F39F0B93FCCF3869577956795B395F7
:1007A000D9F73EF490958095709561957F4F8F4F66
:1007B0009F4F0895990F0008550FAA0BE0E8FEEF30
:1007C00016161706E807F907C0F012161306E40715
:1007D000F50798F0621B730B840B950B39F40A260E
:1007E00061F0232B242B252B21F408950A2609F4EC
:1007F000A140A6958FEF811D811D089557FD90584A
:10080000440F551F59F05F3F71F04795880F97FBD4
:10081000991F61F09F3F79F087950895121613068E
:100820001406551FF2CF4695F1DF08C016161706BD
:100830001806991FF1CF86957105610508940895F2
:10084000E894BB2766277727CB0197F90895B2DF95
:1008500008F48FEF08950BD078C069D028F06ED0DF
:1008600018F0952309F05AC05FC01124EACFC6DF03
:10087000A0F3959FD1F3950F50E0551F629FF001B3
:10088000729FBB27F00DB11D639FAA27F00DB11D0C
:10089000AA1F649F6627B00DA11D661F829F222795
:1008A000B00DA11D621F739FB00DA11D621F839F1C
:1008B000A00D611D221F749F3327A00D611D231FF2
:1008C000849F600D211D822F762F6A2F11249F5740
:1008D00050408AF0E1F088234AF0EE0FFF1FBB1F63
:1008E000661F771F881F91505040A9F79E3F510502
:1008F00070F014C0A6CF5F3FECF3983EDCF3869512
:1009000077956795B795F795E7959F5FC1F7FE2BAC
:10091000880F911D9695879597F9089597F99F6788
:1009200080E870E060E008959FEF80EC0895002477
:100930000A941616170618060906089500240A9444
:1009400012161306140605060895092E0394000CCA
:1009500011F4882352F0BB0F40F4BF2B11F460FF59
:1009600004C06F5F7F4F8F4F9F4F0895DB018F93C0
:100970009F930E94E804BF91AF91A29F800D911DAB
:10098000A39F900DB29F900D11240895A1E21A2EFD
:10099000AA1BBB1BFD010DC0AA1FBB1FEE1FFF1F23
:1009A000A217B307E407F50720F0A21BB30BE40B73
:1009B000F50B661F771F881F991F1A9469F76095BA
:1009C0007095809590959B01AC01BD01CF01089574
:1009D0000E94F304A59F900DB49F900DA49F800DDD
:1009E000911D11240895A29FB001B39FC001A39F40
:1009F000700D811D1124911DB29F700D811D112458
:100A0000911D0895DC0101C06D9341505040E0F705
:100A10000895AEE0B0E0EFE0F5E00C94B1070D8989
:100A20001E8986E08C831A8309838FEF9FE79E835C
:100A30008D83AE01475E5F4F6F89788DCE01019641
:100A40000E942B05EF81F885E00FF11F10822E9692
:100A5000E4E00C94CD07ACE0B0E0E1E3F5E00C9409
:100A6000A3077C016B018A01FC0117821682838136
:100A700081FFBDC1CE0101964C01F7019381F601C2
:100A800093FD859193FF81916F01882309F4ABC198
:100A9000853239F493FD859193FF81916F01853201
:100AA00029F4B70190E00E941307E7CF512C312CB5
:100AB00020E02032A0F48B3269F030F4803259F01B
:100AC000833269F420612CC08D3239F0803339F4DF
:100AD000216026C02260246023C0286021C027FD39
:100AE00027C030ED380F3A3078F426FF06C0FAE020
:100AF0005F9E300D1124532E13C08AE0389E300DB6
:100B00001124332E20620CC08E3221F426FD6BC1DD
:100B1000206406C08C3611F4206802C0883641F487
:100B2000F60193FD859193FF81916F018111C1CFF2
:100B3000982F9F7D9554933028F40C5F1F4FFFE34F
:100B4000F9830DC0833631F0833771F0833509F0B6
:100B50005BC022C0F801808189830E5F1F4F44244F
:100B60004394512C540115C03801F2E06F0E711CF2
:100B7000F801A080B18026FF03C0652D70E002C09F
:100B80006FEF7FEFC5012C870E9408072C018301BE
:100B90002C852F77222E17C03801F2E06F0E711CC2
:100BA000F801A080B18026FF03C0652D70E002C06F
:100BB0006FEF7FEFC5012C870E94FD062C012C856D
:100BC0002068222E830123FC1BC0832D90E0481651
:100BD0005906B0F4B70180E290E00E9413073A94FE
:100BE000F4CFF50127FC859127FE81915F01B701C4
:100BF00090E00E94130731103A94F1E04F1A510827
:100C00004114510471F7E5C0843611F0893639F585
:100C1000F80127FF07C060817181828193810C5F99
:100C20001F4F08C060817181882777FD8095982FBC
:100C30000E5F1F4F2F76B22E97FF09C090958095BB
:100C4000709561957F4F8F4F9F4F2068B22E2AE09D
:100C500030E0A4010E944507A82EA81844C085379B
:100C600029F42F7EB22E2AE030E025C0F22FF97F42
:100C7000BF2E8F36C1F018F4883579F0B4C08037B4
:100C800019F0883721F0AFC02F2F2061B22EB4FEAB
:100C90000DC08B2D8460B82E09C024FF0AC09F2F81
:100CA0009660B92E06C028E030E005C020E130E0B3
:100CB00002C020E132E0F801B7FE07C06081718117
:100CC000828193810C5F1F4F06C06081718180E03B
:100CD00090E00E5F1F4FA4010E944507A82EA818A0
:100CE000FB2DFF77BF2EB6FE0BC02B2D2E7FA5143C
:100CF00050F4B4FE0AC0B2FC08C02B2D2E7E05C0F5
:100D00007A2C2B2D03C07A2C01C0752C24FF0DC02A
:100D1000FE01EA0DF11D8081803311F4297E09C0A6
:100D200022FF06C07394739404C0822F867809F062
:100D3000739423FD13C020FF06C05A2C731418F4BB
:100D4000530C5718732C731468F4B70180E290E0C9
:100D50002C870E94130773942C85F5CF731410F41D
:100D6000371801C0312C24FF12C0B70180E390E096
:100D70002C870E9413072C8522FF17C021FF03C078
:100D800088E590E002C088E790E0B7010CC0822FB0
:100D9000867859F021FD02C080E201C08BE227FD78
:100DA0008DE2B70190E00E941307A51438F4B70153
:100DB00080E390E00E9413075A94F7CFAA94F401BD
:100DC000EA0DF11D8081B70190E00E941307A11088
:100DD000F5CF332009F451CEB70180E290E00E94B4
:100DE00013073A94F6CFF7018681978102C08FEFFF
:100DF0009FEF2C96E2E10C94BF07FC010590615037
:100E000070400110D8F7809590958E0F9F1F089520
:100E1000FC016150704001900110D8F780959095C9
:100E20008E0F9F1F08950F931F93CF93DF93182F5B
:100E3000092FEB018B8181FD03C08FEF9FEF20C055
:100E400082FF10C04E815F812C813D814217530784
:100E50007CF4E881F9819F012F5F3F4F398328831C
:100E6000108306C0E885F985812F0995892B29F71C
:100E70002E813F812F5F3F4F3F832E83812F902F05
:100E8000DF91CF911F910F910895FA01AA27283081
:100E900051F1203181F1E8946F936E7F6E5F7F4F47
:100EA0008F4F9F4FAF4FB1E03ED0B4E03CD0670FC3
:100EB000781F891F9A1FA11D680F791F8A1F911D16
:100EC000A11D6A0F711D811D911DA11D20D009F466
:100ED00068943F912AE0269F11243019305D3193A8
:100EE000DEF6CF010895462F4770405D4193B3E091
:100EF0000FD0C9F7F6CF462F4F70405D4A3318F038
:100F0000495D31FD4052419302D0A9F7EACFB4E0E8
:100F1000A6959795879577956795BA95C9F70097A0
:100F20006105710508959B01AC010A2E0694579541
:100F3000479537952795BA95C9F7620F731F841F98
:100F4000951FA01D08952F923F924F925F926F922E
:100F50007F928F929F92AF92BF92CF92DF92EF9249
:100F6000FF920F931F93CF93DF93CDB7DEB7CA1BCA
:100F7000DB0B0FB6F894DEBF0FBECDBF09942A88F5
:100F8000398848885F846E847D848C849B84AA849D
:100F9000B984C884DF80EE80FD800C811B81AA812A
:100FA000B981CE0FD11D0FB6F894DEBF0FBECDBFF5
:080FB000ED010895F894FFCF54
:040FB800257500009B
:00000001FF
