:100000000C94BB000C94D0000C94D0000C94D00045
:100010000C94D0000C94D0000C94D0000C94D00020
:100020000C94D0000C94D0000C94D0000C94D00010
:100030000C94D0000C94D0000C94D0000C94D00000
:100040000C94D0000C94D0000C94D0000C94D000F0
:100050000C94D0000C94D0000C94D0000C94D000E0
:100060000C94D0000C94D0006E616E00696E660036
:1000700000407A10F35A00A0724E18090010A5D45F
:10008000E80000E87648170000E40B54020000CABC
:100090009A3B000000E1F505000080969800000002
:1000A00040420F000000A086010000001027000061
:1000B0000000E803000000006400000000000A00E7
:1000C000000000000100000000002C76D888DC67EA
:1000D0004F0823DFC1DFAE59E1B1B796E5E3E45342
:1000E000C63AE651997696E8E6C28426EB898C9B5F
:1000F00062ED407C6FFCEFBC9C9F40F2BAA56FA5FF
:10010000F490055A2AF75C936B6CF9676DC11BFC80
:10011000E0E40D47FEF520E6B500D0ED902E03009B
:10012000943577050080841E080000204E0A0000E8
:1001300000C80C333333330F986E12831141EF8DA7
:100140002114893BE65516CFFEE6DB18D1844B38E7
:100150001BF77C1D901DA4BBE424203284725E2218
:100160008100C9F124ECA1E53D276364696E6F70DD
:10017000737578585B0011241FBECFEFD8E0DEBF47
:10018000CDBF13E0A0E0B1E0ECECFFE102C00590D0
:100190000D92A436B107D9F70E94D2000C94E40F57
:1001A0000C940000CF93DF93CDB7DEB763970FB603
:1001B000F894DEBF0FBECDBF998B888B7B8B6A8B8B
:1001C00060E875E280E090E00E94CD010E9490011D
:1001D0000E9468018AE290E02AE230E0F901208181
:1001E0002B7FFC0120838BE290E02BE230E0F901D1
:1001F00020812460FC01208319821A821B821C82C8
:100200001D821E821F8218861F8680E00E94810246
:10021000CC01A0E0B0E089839A83AB83BC83898161
:100220009A81AB81BC81BC01CD010E94D103DC016C
:10023000CB0189879A87AB87BC8789859A85AB85EF
:10024000BC85BC01CD010E94BD04DC01CB01BC0119
:10025000CD010E944804DC01CB018D839E83AF83D6
:10026000B88720E030E048EC52E46D817E818F81D8
:1002700098850E94460ADC01CB01BC01CD010E9499
:100280006409DC01CB019E878D878D859E850E9448
:100290009A030E94B702000089E290E0FC0180818D
:1002A0008F878F8586958695882F90E08170992716
:1002B000009739F40E9469028D859E850E94110283
:1002C00002C00E94500284EF91E00E9403039DCF80
:1002D000CF93DF93CDB7DEB780E890E022E8FC0152
:1002E000208381E890E02AE1FC01208386E890E009
:1002F00020EA3FE0FC013183208388E890E020ED94
:1003000037E0FC013183208384E290E024E230E096
:10031000F90120812260FC012083DF91CF910895B3
:10032000CF93DF93CDB7DEB78AE790E0FC01108270
:100330008AE790E02AE730E0F90120812068FC019B
:1003400020838CE790E02CE730E0F90120812064E5
:10035000FC0120838AE790E02AE730E0F901208160
:100360002760FC0120838EE790E0FC0110828EE77D
:1003700090E02EE730E0F90120812F63FC0120831B
:100380008AE790E02AE730E0F90120812064FC014F
:1003900020830000DF91CF910895CF93DF93CDB7F5
:1003A000DEB72A970FB6F894DEBF0FBECDBF6B83C2
:1003B0007C838D839E8380E894E8AEE1B0E02B815E
:1003C0003C814D815E81BC01CD010E94A90ADA0108
:1003D000C90101979A83898385EC90E029813A814C
:1003E000232F3327FC01208384EC90E02981FC013A
:1003F000208380EC90E022E0FC01208381EC90E0FF
:1004000028E1FC01208382EC90E026E2FC012083BD
:100410002A960FB6F894DEBF0FBECDBFDF91CF9105
:100420000895CF93DF93CDB7DEB728970FB6F89432
:10043000DEBF0FBECDBF9C838B838B819C819C01D3
:1004400040E050E080E094E2A4EFB0E0BC01CD01D8
:100450000E94A90ADA01C901969587959695879514
:100460009695879501979A83898388E890E02981FA
:100470003A81FC013183208386E890E029813A812A
:10048000220F331F2F5F3F4FFC01318320832896BB
:100490000FB6F894DEBF0FBECDBFDF91CF910895A8
:1004A000CF93DF93CDB7DEB784E290E024E230E073
:1004B000F90120812D7FFC01208385E290E025E277
:1004C00030E0F90120812D7FFC012083DF91CF9165
:1004D0000895CF93DF93CDB7DEB784E290E0FC01BF
:1004E000108285E290E0FC01108284E290E024E238
:1004F00030E0F90120812260FC012083DF91CF915F
:100500000895CF93DF931F92CDB7DEB789838CE731
:1005100090E02CE730E0F9012081207FFC0120836E
:100520008CE790E02CE730E0F90130812981232B22
:10053000FC0120838AE790E02AE730E0F90120817E
:100540002064FC01208300008AE790E0FC018081A8
:10055000882F90E0807499270097B1F788E790E0A2
:10056000FC01808191810F90DF91CF910895CF930D
:10057000DF93CDB7DEB78AE00E94C4028DE00E940F
:10058000C402DF91CF910895CF93DF931F92CDB72F
:10059000DEB78983000080EC90E0FC018081882F29
:1005A00090E0807299270097B1F386EC90E0298162
:1005B000FC0120830F90DF91CF910895CF93DF93BB
:1005C00000D000D0CDB7DEB79C838B838B819C811C
:1005D0009A8389830BC089819A819C012F5F3F4F49
:1005E0003A832983FC0180810E94C40289819A8117
:1005F000FC018081882379F70F900F900F900F9066
:10060000DF91CF910895CF93DF93CDB7DEB7629797
:100610000FB6F894DEBF0FBECDBF9A8B898B1A82BE
:10062000198277C080E090E0A0E8BFE38B839C83D1
:10063000AD83BE8320E030E04AE755E46B817C81E6
:100640008D819E810E94460ADC01CB018F839887B1
:10065000A987BA8720E030E040E85FE36F817885C2
:1006600089859A850E94F80888232CF481E090E01F
:100670009C878B873FC020E03FEF4FE757E46F81B7
:10068000788589859A850E94420A18164CF520E0E3
:1006900030E040E251E46B817C818D819E810E943B
:1006A000460ADC01CB01BC01CD010E946409DC01DA
:1006B000CB019C878B870FC080E991E09E878D8757
:1006C0008D859E850197F1F79E878D878B859C850B
:1006D00001979C878B878B859C85009769F714C051
:1006E0006F81788589859A850E946409DC01CB0138
:1006F0009C878B878B859C85988B8F878F85988926
:100700000197F1F7988B8F8789819A8101969A8357
:10071000898329813A8189899A892817390708F4B8
:1007200081CF62960FB6F894DEBF0FBECDBFDF91CA
:10073000CF910895CF93DF9300D000D01F92CDB713
:10074000DEB79D838C8343E050E060E070E0CE0133
:1007500001960E94E50B8D818F938C818F9388E5A4
:1007600093E0892F8F9388E593E08F93CE010196D4
:10077000892F8F93CE0101968F930E94290C0F90A1
:100780000F900F900F900F900F90CE0101960E9446
:10079000DE020F900F900F900F900F90DF91CF918E
:1007A0000895CF93DF9300D000D0CDB7DEB7698333
:1007B0007A838B839C8329813A814B815C81DA0126
:1007C000C901880F991FAA1FBB1F880F991FAA1F55
:1007D000BB1F820F931FA41FB51FBC01CD010E9438
:1007E0009009DC01CB0120E030E040E854E4BC019A
:1007F000CD010E94FC08DC01CB01BC01CD010F90B2
:100800000F900F900F90DF91CF910895CF93DF93CA
:10081000CDB7DEB728970FB6F894DEBF0FBECDBFB9
:1008200069837A838B839C832D833E834F83588790
:100830002D813E814F81588569817A818B819C8190
:100840000E94420A18166CF42D813E814F81588512
:1008500069817A818B819C810E949308DC01CB01A4
:100860000CC029813A814B815C816D817E818F81B1
:1008700098850E949308DC01CB01BC01CD0128962C
:100880000FB6F894DEBF0FBECDBFDF91CF910895B4
:10089000CF93DF93CDB7DEB760970FB6F894DEBF86
:1008A0000FBECDBF6D877E878F87988B80E090E0ED
:1008B000A6ECB2E48B839C83AD83BE8318861F8233
:1008C0001A8219823AC089819A81880F991F880FEC
:1008D000991F880F991F8C5F9E4FFC018081918129
:1008E000A281B3812D853E854F855889BC01CD01FC
:1008F0000E940604DC01CB0189879A87AB87BC87FD
:1009000029853A854B855C856B817C818D819E81B3
:100910000E94420A181664F489859A85AB85BC85C5
:100920008B839C83AD83BE8389819A8198878F83D3
:1009300089819A8101969A83898389819A818B34EE
:1009400091050CF4C0CF8F819885880F991F880F6F
:10095000991F880F991F80509F4FFC0180819181C2
:10096000A281B381BC01CD0160960FB6F894DEBFC1
:100970000FBECDBFDF91CF910895CF93DF93CDB759
:10098000DEB7AC970FB6F894DEBF0FBECDBF69A738
:100990007AA78BA79CA789A59AA5ABA5BCA52B2F49
:1009A0002F932A2F2F93292F2F938F938BE593E04B
:1009B000892F8F938BE593E08F93CE010196892F3A
:1009C0008F93CE0101968F930E94290C8DB79EB70D
:1009D00008960FB6F894DEBF0FBECDBFCE01899644
:1009E000292F2F938F9380E693E0892F8F9380E6B2
:1009F00093E08F93CE010196892F8F93CE010196BC
:100A00008F930E944B0C0F900F900F900F900F90B0
:100A10000F9089A59AA5ABA5BCA5BC01CD01AC964C
:100A20000FB6F894DEBF0FBECDBFDF91CF91089512
:100A3000A3E1B0E0EEE1F5E00C94CB0A7C011B01F0
:100A40006A01FC0117821682838181FF66C3BE01A1
:100A50006F5F7F4F4B01F7019381F10193FD85910A
:100A600093FF81911F01882309F453C3853239F420
:100A700093FD859193FF81911F01853239F4B70170
:100A800090E00E94F70B56016501E5CF10E0512C74
:100A900020E02032A0F48B3269F030F4803259F03B
:100AA000833269F420612CC08D3239F0803339F4FF
:100AB000216026C02260246023C0286021C027FD59
:100AC00027C030ED380F3A3078F426FF06C0FAE040
:100AD0001F9F300D1124132F13C06AE0569E300D56
:100AE0001124532E20620CC08E3221F426FD11C336
:100AF000206406C08C3611F4206802C0883641F4A8
:100B0000F10193FD859193FF81911F018111C1CF67
:100B10009BEB980F933018F42061805E06C09BE930
:100B2000980F933008F0AAC12F7E26FF16E02F738E
:100B3000722E853621F4F22FF0647F2E08C086369F
:100B400021F4622F6068762E02C01111115077FED9
:100B500007C01C3348F444244394410E27E00BC0E3
:100B6000183030F4212F06C027E04CE3442E03C098
:100B700027E017E0412C560174E0A70EB11CF601E6
:100B80006081718182819381042DA4010E94020BF6
:100B90006C01098100FF02C003FF06C071FC07C0A1
:100BA00072FC08C0612C08C03DE2632E05C02BE238
:100BB000622E02C090E2692E802F8C7099F166201F
:100BC00011F084E001C083E0851510F0512C0BC0BA
:100BD000581A73FC08C0B70180E290E00E94F70B3E
:100BE0005A94C9F7F3CF662029F0B701862D90E01B
:100BF0000E94F70B03FD03C00CE610E002C008E6FC
:100C000010E0F72DF0717F2EF8018491882309F40C
:100C100076C271108052B70190E00E94F70B0F5F0F
:100C20001F4FF2CF77FE0FC04C0C04FF04C08A8127
:100C3000813309F44A94141474F5F8E0F41578F546
:100C400088E0482E2CC076FC2AC0812F90E08C15BD
:100C50009D059CF06CEFC6166FEFD60674F0772DED
:100C60007068772E0AC0E2E0F0E0EC0FFD1FE10FA4
:100C7000F11D8081803319F411501111F4CF77FEEA
:100C80000EC044244394410E812F90E0C816D9062B
:100C90002CF41C1904C04424439401C010E077FED6
:100CA00007C01C141D043CF496012F5F3F4F05C084
:100CB00025E030E002C021E030E0662011F02F5F37
:100CC0003F4F112331F0412F50E04F5F5F4F240F12
:100CD000351F452D50E02417350714F4521A01C072
:100CE000512C872D897049F4552039F0B70180E2E5
:100CF00090E00E94F70B5A94F7CF662029F0B701D5
:100D0000862D90E00E94F70B73FC09C0552039F046
:100D1000B70180E390E00E94F70B5A94F7CF77FE7B
:100D20005FC09C2D8D2DD7FE02C090E080E0692E23
:100D3000782E40E050E0C601841991099D878C8788
:100D4000960126193709280D391D812F90E0EE27CD
:100D5000FF27E81BF90BFF87EE87FFEF6F167F0673
:100D600069F4B7018EE290E02B8B3A8B488B598B5C
:100D70000E94F70B598948893A892B89C614D704F0
:100D800054F06C857D85661577052CF4F901E40F28
:100D9000F51F818101C080E371E0671A71084F5F20
:100DA0005F4FEE85FF856E167F066CF0B70190E011
:100DB0002B8B3A8B488B598B0E94F70B2B893A89E6
:100DC00048895989CACF6C147D0439F49A819633C5
:100DD00018F4953311F404FF81E3B70190E04BC0A0
:100DE0008A81813309F00F7EB70190E00E94F70BF2
:100DF000111105C074FE18C085E490E017C0B7015A
:100E00008EE290E00E94F70B82E066246394680E05
:100E1000F401E80FF11D8081B70190E00E94F70B0B
:100E2000115041F3862DF1CF85E690E0B7010E9485
:100E3000F70BD7FC05C0C114D10439F404FF05C079
:100E4000D194C194D1088DE201C08BE2B70190E04A
:100E50000E94F70B80E36AE0C616D1042CF08F5F86
:100E6000FAE0CF1AD108F7CFB70190E00E94F70B54
:100E7000B701C601C0960E94F70B41C1833631F01D
:100E8000833779F0833509F058C021C0560172E0EC
:100E9000A70EB11CF6018081898301E010E0640196
:100EA00014C05601F2E0AF0EB11CF601C080D18033
:100EB00026FF03C0612F70E002C06FEF7FEFC60115
:100EC0002B8B0E94EC0B8C012B892F7715C05601C0
:100ED000F2E0AF0EB11CF601C080D18026FF03C046
:100EE000612F70E002C06FEF7FEFC6012B8B0E9475
:100EF000DA0B8C012B892068722E23FD1AC0852DF8
:100F000090E008171907A8F4B70180E290E00E946A
:100F1000F70B5A94F4CFF60177FC859177FE819117
:100F20006F01B70190E00E94F70B51105A940150E5
:100F300011090115110579F7E2C0843611F08936DF
:100F400051F5560127FF09C0F4E0AF0EB11CF601C0
:100F500060817181828193810AC0F2E0AF0EB11C81
:100F6000F60160817181882777FD8095982F022F87
:100F70000F7697FF08C090958095709561957F4F8B
:100F80008F4F9F4F00682AE030E0A4010E94640C5C
:100F9000C82EC8183EC0022F853721F40F7E2AE0E4
:100FA00030E01DC0097F8F3691F018F4883559F074
:100FB000B0C0803719F0883711F0ABC0006104FF72
:100FC00009C0046007C024FF08C0066006C028E00E
:100FD00030E005C020E130E002C020E132E05601FF
:100FE00007FF09C0F4E0AF0EB11CF601608171810A
:100FF0008281938108C0F2E0AF0EB11CF6016081DE
:10100000718180E090E0A4010E94640CC82EC81891
:101010000F7706FF0BC0202F2E7FC11650F404FF60
:101020000AC002FD08C0202F2E7E05C0DC2C202F18
:1010300003C0DC2C01C0D12E24FF0DC0FE01EC0D3D
:10104000F11D8081803311F4297E09C022FF06C082
:10105000D394D39404C0822F867809F0D39423FDCF
:1010600013C020FF06C01C2DD51418F4150D1D1932
:10107000D52CD51468F4B70180E290E02B8B0E9448
:10108000F70BD3942B89F5CFD51410F45D1801C05C
:10109000512C24FF12C0B70180E390E02B8B0E94FB
:1010A000F70B2B8922FF17C021FF03C088E590E0D2
:1010B00002C088E790E0B7010CC0822F867859F013
:1010C00021FD02C080E201C08BE227FD8DE2B70165
:1010D00090E00E94F70BC11638F4B70180E390E06E
:1010E0000E94F70B1150F7CFCA94F401EC0DF11DDB
:1010F0008081B70190E00E94F70BC110F5CF552019
:1011000009F4C2CCB70180E290E00E94F70B5A9438
:10111000F6CFF7018681978102C08FEF9FEF63962C
:10112000E2E10C94E70A5058BB27AA270ED070C101
:1011300061D130F066D120F031F49F3F11F41EF4FC
:1011400056C10EF4E095E7FB4CC1E92F72D180F354
:10115000BA17620773078407950718F071F49EF5B4
:101160008AC10EF4E0950B2EBA2FA02D0B01B90108
:1011700090010C01CA01A0011124FF27591B99F00D
:10118000593F50F4503E68F11A16F040A22F232F19
:10119000342F4427585FF3CF469537952795A79569
:1011A000F0405395C9F77EF41F16BA0B620B730B10
:1011B000840BBAF09150A1F0FF0FBB1F661F771F81
:1011C000881FC2F70EC0BA0F621F731F841F48F436
:1011D000879577956795B795F7959E3F08F0B3CFBC
:1011E0009395880F08F09927EE0F979587950895A6
:1011F000D4D008F481E008950CD00AC102D140F0A7
:10120000F9D030F021F45F3F19F0EBC0511134C137
:10121000EEC00FD198F39923C9F35523B1F3951B71
:10122000550BBB27AA2762177307840738F09F5F07
:101230005F4F220F331F441FAA1FA9F333D00E2E76
:101240003AF0E0E830D091505040E695001CCAF7E3
:1012500029D0FE2F27D0660F771F881FBB1F2617A8
:1012600037074807AB07B0E809F0BB0B802DBF017B
:10127000FF2793585F4F2AF09E3F510568F0B1C099
:10128000FBC05F3FECF3983EDCF38695779567955E
:10129000B795F7959F5FC9F7880F911D969587952C
:1012A00097F90895E1E0660F771F881FBB1F62174B
:1012B00073078407BA0720F0621B730B840BBA0B09
:1012C000EE1F88F7E0950895BCD088F09F5790F006
:1012D000B92F9927B751A0F0D1F0660F771F881F5B
:1012E000991F1AF0BA95C9F712C0B13081F0C3D076
:1012F000B1E00895C0C0672F782F8827B85F39F014
:10130000B93FCCF3869577956795B395D9F73EF4B9
:1013100090958095709561957F4F8F4F9F4F089561
:10132000E89409C097FB3EF490958095709561957F
:101330007F4F8F4F9F4F9923A9F0F92F96E9BB2735
:101340009395F695879577956795B795F111F8CFB1
:10135000FAF4BB0F11F460FF1BC06F5F7F4F8F4F1C
:101360009F4F16C0882311F096E911C0772321F012
:101370009EE8872F762F05C0662371F096E8862FAA
:1013800070E060E02AF09A95660F771F881FDAF701
:10139000880F9695879597F90895990F0008550F2E
:1013A000AA0BE0E8FEEF16161706E807F907C0F0EB
:1013B00012161306E407F50798F0621B730B840BF3
:1013C000950B39F40A2661F0232B242B252B21F4CD
:1013D00008950A2609F4A140A6958FEF811D811D6D
:1013E000089597F99F6780E870E060E008959FEFA7
:1013F00080EC089500240A941616170618060906AC
:10140000089500240A94121613061406050608957A
:10141000092E0394000C11F4882352F0BB0F40F402
:10142000BF2B11F460FF04C06F5F7F4F8F4F9F4F42
:10143000089557FD9058440F551F59F05F3F71F0C4
:101440004795880F97FB991F61F09F3F79F087952B
:101450000895121613061406551FF2CF4695F1DFB4
:1014600008C0161617061806991FF1CF8695710544
:10147000610508940895E894BB2766277727CB0178
:1014800097F908958ADF08F48FEF08950BD0C0CF45
:10149000B1DF28F0B6DF18F0952309F0A2CFA7CF6F
:1014A0001124EACFC6DFA0F3959FD1F3950F50E04A
:1014B000551F629FF001729FBB27F00DB11D639F06
:1014C000AA27F00DB11DAA1F649F6627B00DA11DAC
:1014D000661F829F2227B00DA11D621F739FB00D52
:1014E000A11D621F839FA00D611D221F749F3327C2
:1014F000A00D611D231F849F600D211D822F762F5B
:101500006A2F11249F5750408AF0E1F088234AF057
:10151000EE0FFF1FBB1F661F771F881F91505040A3
:10152000A9F79E3F510570F05CCFA6CF5F3FECF36B
:10153000983EDCF3869577956795B795F795E7958F
:101540009F5FC1F7FE2B880F911D9695879597F9A0
:101550000895A1E21A2EAA1BBB1BFD010DC0AA1FF4
:10156000BB1FEE1FFF1FA217B307E407F50720F00C
:10157000A21BB30BE40BF50B661F771F881F991F87
:101580001A9469F760957095809590959B01AC01D0
:10159000BD01CF0108952F923F924F925F926F92BB
:1015A0007F928F929F92AF92BF92CF92DF92EF92F3
:1015B000FF920F931F93CF93DF93CDB7DEB7CA1B74
:1015C000DB0B0FB6F894DEBF0FBECDBF09942A889F
:1015D000398848885F846E847D848C849B84AA8447
:1015E000B984C884DF80EE80FD800C811B81AA81D4
:1015F000B981CE0FD11D0FB6F894DEBF0FBECDBF9F
:10160000ED010895283008F027E03327DA01990F1B
:10161000311D87FD916000966105710539F43260D6
:101620002E5F3D9330E32A95E1F708959F3F30F018
:1016300080387105610509F03C5F3C5F3D93913056
:1016400008F08068911DDF93CF931F930F93FF9253
:10165000EF92192F987F9695E92F96959695E90F19
:10166000FF27E653FF4F99273327EE24FF24A701D6
:10167000E70105900894079428F4360FE71EF81E3A
:10168000491F511D660F771F881F991F0694A1F7E8
:101690000590079428F4E70EF81E491F561FC11D38
:1016A000770F881F991F661F0694A1F7059007946E
:1016B00028F4F80E491F561FC71FD11D880F991F08
:1016C000661F771F0694A1F70590079420F4490F31
:1016D000561FC71FD81F990F661F771F881F0694B4
:1016E000A9F784911095177041F0D695C795579535
:1016F0004795F794E7941A95C1F7E0E7F0E068940E
:101700001590159135916591959105907FE27395AE
:10171000E118F10A430B560BC90BD009C0F7E10CD5
:10172000F11E431F561FC91FD01D7EF4703311F4E4
:101730008A95E6CFE894015030F0080F0AF40027AC
:10174000021708F4202F2395022F7A3328F079E32B
:101750007D932A95E9F710C07D932A9589F6069422
:1017600097956795379517951794E118F10A430BEC
:10177000560BC90BD00998F023957E9173957A3357
:1017800008F070E37C932013B8F77E9170617D932D
:1017900030F0839571E37D9370E32A95E1F711248E
:1017A000EF90FF900F911F91CF91DF91992787FDC7
:1017B00090950895FC010590615070400110D8F794
:1017C000809590958E0F9F1F0895DC0101C06D9349
:1017D00041505040E0F70895FC0161507040019085
:1017E0000110D8F7809590958E0F9F1F08950F9345
:1017F0001F93CF93DF93182F092FEB018B8181FD6E
:1018000003C08FEF9FEF20C082FF10C04E815F8129
:101810002C813D81421753077CF4E881F9819F01B7
:101820002F5F3F4F39832883108306C0E885F985F1
:10183000812F0995892B29F72E813F812F5F3F4FFB
:101840003F832E83812F902FDF91CF911F910F9196
:101850000895AEE0B0E0EFE2FCE00C94D90A0D8907
:101860001E8986E08C831A8309838FEF9FE79E830E
:101870008D83AE01475E5F4F6F89788DCE010196F3
:101880000E941805EF81F885E00FF11F10822E9657
:10189000E4E00C94F50AAEE0B0E0E1E5FCE00C9485
:1018A000DB0A85E08C838B899C899A838983AE01CE
:1018B000495E5F4F6D897E89CE0101960E94400E80
:1018C0002E96E2E00C94F70AFA01AA27283051F18B
:1018D000203181F1E8946F936E7F6E5F7F4F8F4F61
:1018E0009F4FAF4FB1E03ED0B4E03CD0670F781FC0
:1018F000891F9A1FA11D680F791F8A1F911DA11DA5
:101900006A0F711D811D911DA11D20D009F46894DD
:101910003F912AE0269F11243019305D3193DEF685
:10192000CF010895462F4770405D4193B3E00FD03B
:10193000C9F7F6CF462F4F70405D4A3318F0495D26
:1019400031FD4052419302D0A9F7EACFB4E0A69509
:101950009795879577956795BA95C9F7009761052B
:10196000710508959B01AC010A2E06945795479581
:1019700037952795BA95C9F7620F731F841F951F76
:10198000A01D089520FD09C0FC0123FD05C022FF14
:1019900002C07383628351834083089544FD10C065
:1019A00046FD10C0DB01FC01AA0FBB1FEE1FFF1F8D
:1019B0001094D1F76A0F7B1F8E1F9F1F31E003C069
:1019C00033E001C034E0660F771F881F991F315044
:1019D000D1F7620F711D811D911D08950F931F9303
:1019E000CF93DF938C01C8010E948A0FEC0197FD11
:1019F00008C00E94770F892BB1F7B801CE010E9471
:101A0000C80FCE01DF91CF911F910F9108958F9252
:101A10009F92AF92CF92DF92EF92FF920F931F931C
:101A2000CF93DF93EC01A62E4A01022F0E948A0F6A
:101A3000AC0155274B32510521F04D32510551F47F
:101A40000068AA9411F480E067C0CE010E948A0F5A
:101A500097FDF9CF102F1D7F302F307301F58033A4
:101A6000F1F4FF24FA94FA0C09F442C0CE010E946A
:101A70008A0F97FD3DC0382F3F7D383551F41264F1
:101A8000AA94AA94A9F1CE010E948A0F97FF07C0D9
:101A90002FC006FF02C0126001C01261AF2CC12C22
:101AA000D12C760120ED280F283080F014FF04C0DF
:101AB000BE010E94C80F19C02A3040F016FFF8CFAF
:101AC0002F7D3FEE320F363098F72750412FC70158
:101AD000B6010E94CE0C6B017C011260AA9459F0F1
:101AE000CE010E948A0F97FFDDCF11FD04C0ABCF5E
:101AF000C12CD12C760117FF08C0F094E094D0944B
:101B0000C094C11CD11CE11CF11C212FB701A601FE
:101B1000C4010E94C20C81E0DF91CF911F910F910F
:101B2000FF90EF90DF90CF90AF909F908F900895AF
:101B3000A1E2B0E0EEE9FDE00C94D00A5C017A018C
:101B40008E010F5F1F4F680180E2D8011D928A95B8
:101B5000E9F7F501738040E050E0812CB0E0912C72
:101B600081E090E0F90173FCA59173FEA1918F01D2
:101B70007A2F9F01A11103C080E090E07DC0AE35B7
:101B800019F44115510559F1E92DF0E0E417F50775
:101B90003CF4AD3569F1AD3219F4BB2319F103C042
:101BA000B11101C08A2EE72FE695E695E6958601EC
:101BB0000E0F111DF801A72FA7708C0102C0000F96
:101BC000111FAA95E2F7D801B081BA2BB08378151E
:101BD00059F0781510F47F5FE6CF7150E4CF992467
:101BE000939403C0B1E001C0B0E04F5F5F4FBACF44
:101BF000BB2319F08E8180628E83911003C09924DB
:101C0000939415C0F601CE018196208120952193F1
:101C1000E817F907D1F7F3CFE114F10429F0D70160
:101C20008C93F70131967F01615001F1912CC50130
:101C300069A30E948A0F69A197FD16C0282F2695D7
:101C400026952695F601E20FF11D208130E0AC01CA
:101C50004770552702C0359527954A95E2F720FD34
:101C6000DBCFB5010E94C80F911086CFE114F104BB
:101C700011F0D7011C92C801A196EDE00C94EC0A7A
:101C80004F925F927F928F929F92AF92BF92CF922C
:101C9000DF92EF92FF920F931F93CF93DF931F92E8
:101CA000CDB7DEB78C012B017A01FC0117821682B9
:101CB000A12CF801D380F201D3FC8591D3FE819150
:101CC000382F2F01882309F4FCC090E039830E944B
:101CD000770F3981892B21F0C8010E94EE0CE9CFE2
:101CE000353241F4F201D3FC3591D3FE31912F010D
:101CF000353269F4C80139830E948A0F398197FD12
:101D0000DEC03817B1F2B8010E94C80FDAC03A320B
:101D100041F4D3FC3591D3FE31912F01BB24B39410
:101D200001C0B12C712C20ED230F2A3090F4FB2D33
:101D3000F260BF2E672D70E080E090E040E20E94EC
:101D4000CE0C762EF201D3FC3591D3FE31912F01CA
:101D5000EACFB1FE03C0711003C0B3C077247A94F8
:101D6000383619F03C3661F014C0F201D3FC3591DD
:101D7000D3FE31912F01383661F4FB2DF860BF2E70
:101D80008B2D8460B82EF201D3FC3591D3FE3191B6
:101D90002F01332309F495C0632F70E08AE691E0A8
:101DA00039830E947F0F3981892B09F48AC0B0FCE6
:101DB00007C0F701C080D180C70102967C0102C034
:101DC000C12CD12C3E3651F4F8014681578160E098
:101DD00070E02B2DC6010E94C20C6BCF3336A1F4EC
:101DE000B1FC02C077247394C8010E948A0F97FD4A
:101DF00066C0C114D10429F0F6018083C6010196A2
:101E00006C017A9489F757C03B3559F49201A601C9
:101E1000672DC8010E94980D2C01009709F04BC056
:101E200045C0C80139830E94EE0C398197FD47C037
:101E30003F3669F128F4343631F1393679F12BC067
:101E4000333769F03537F9F026C0C114D10429F0D1
:101E5000F6018082C60101966C017A9471F0C80186
:101E60000E948A0F4C0197FD08C00E94770F892BB2
:101E700061F3B801C4010E94C80FC114D104D9F0A4
:101E8000F601108218C0FB2DF062BF2E07C08B2D0B
:101E90008061B82E03C09B2D9064B92E2B2DA60116
:101EA000672DC8010E94070D811105C0F8018381CB
:101EB000807329F406C0B0FCFCCEA394FACEAA200D
:101EC00019F08A2D90E002C08FEF9FEF0F90DF9105
:101ED000CF911F910F91FF90EF90DF90CF90BF9027
:101EE000AF909F908F907F905F904F900895911149
:101EF00068C0803219F089508550D0F70895FC01F0
:101F00000590061621F00020D9F7C00108953197F9
:101F1000CF010895CF93DF93EC012B8120FF33C0D5
:101F200026FF0AC02F7B2B838E819F8101969F8382
:101F30008E838A8190E029C022FF0FC0E881F98159
:101F40008081992787FD9095009719F420622B8353
:101F50001AC03196F983E8830EC0EA85FB8509959E
:101F600097FF09C02B81019611F480E101C080E246
:101F7000822B8B8308C02E813F812F5F3F4F3F8391
:101F80002E83992702C08FEF9FEFDF91CF910895A5
:101F9000FB01238120FF12C026FD10C08F3F3FEFC1
:101FA000930761F082832F7D20642383268137810C
:101FB0002150310937832683992708958FEF9FEFAA
:0C1FC0000895992788270895F894FFCF12
:101FCC00000020429A99993E00001E42F6289C3E41
:101FDC0000001C4252B89E3E00001A42AE47A13E81
:101FEC00000018420AD7A33E000016427B14AE3EF6
:101FFC00000014423333B33E0000124248E1BA3EB3
:10200C0000001042A470BD3E00000E420000C03E15
:10201C0000000C425C8FC23E00000A42B81EC53E56
:10202C000000084214AEC73E00000642713DCA3E95
:10203C0000000442CDCCCC3E00000242295CCF3ED5
:10204C000000004285EBD13E0000FC41E17AD43E19
:10205C000000F8413D0AD73E0000F4419A99D93E60
:10206C000000F041F628DC3E0000EC4152B8DE3EA8
:10207C000000E841AE47E13E0000E4416666E63E02
:10208C000000E0411F85EB3E0000DC41D7A3F03E91
:10209C000000D8418FC2F53E0000D44148E1FA3E21
:1020AC000000D0410000003F0000CC415C8F023F9B
:1020BC000000C841295C0F3F0000C4413333133F7B
:1020CC000000C041E17A143F0000BC418FC2153FB3
:1020DC000000B8413D0A173F0000B4418716193F74
:1020EC000000B0419A99193F0000AC41F6281C3F02
:1020FC000000A84152B81E3F0000A4410000203F40
:10210C000000A041AE47213F00009C41C3F5283F91
:10211C0000009841D7A3303F000094418FC2353F57
:10212C000000904148E13A3F00008C410000403FE4
:10213C0000008841B81E453F00008441713D4A3F74
:10214C0000008041CDCC4C3F000078413D0A573F08
:10215C00000070410AD7633F000068416666663F25
:10216C00000060411F856B3F000058418FC2753FD6
:10217C00000050410000803F000048410AD7833FD7
:10218C0000004041C3F5883F00003841CDCC8C3F66
:10219C00000030413D0A973F0000284148E19A3F3A
:1021AC00000020410AD7A33F0000184114AEA73FFE
:1021BC00000010413333B33F00000841AE47C13F2C
:1021CC0000000041713DCA3F0000F040295CCF3F48
:1021DC000000E040B81EE53F0000D0408FC2F53F44
:1021EC000000C040000000400000B0401F850B40C4
:1021FC000000A0409A991940000090400000204037
:10220C00000080407B142E4000006040F6283C40CB
:10221C000000404000004040257500252E3266002D
:04222C002566000023
:00000001FF
