:100000000C9434000C943E000C943E000C943E0082
:100010000C943E000C943E000C943E000C943E0068
:100020000C943E000C943E000C943E000C943E0058
:100030000C943E000C943E000C943E000C943E0048
:100040000C943E000C943E000C943E000C943E0038
:100050000C943E000C943E000C943E000C943E0028
:100060000C943E000C943E0011241FBECFEFD8E04C
:10007000DEBFCDBF0E945C000C9468000C940000B1
:1000800020E030E02817390749F0EFE9FFE0319729
:10009000F1F700C000002F5F3F4FF4CF089520E03C
:1000A00030E02817390739F045E04A95F1F70000AC
:1000B0002F5F3F4FF6CF0895259A2D9884E690E064
:1000C0000E9440002D9A84E690E00E944000F5CF07
:0400D000F894FFCFD2
:00000001FF
